:1000000078270020FD30000065960000E9300000F0
:10001000E9300000E9300000E9300000E93000007C
:10002000000000000000000000000000C9320000D5
:10003000E9300000000000005D320000E9300000FF
:10004000AD340000AD340000AD340000AD3400002C
:10005000AD340000AD340000AD340000AD3400001C
:10006000AD340000AD340000AD340000AD3400000C
:10007000AD340000AD340000AD340000AD340000FC
:10008000AD340000AD340000AD340000AD340000EC
:10009000AD340000AD340000AD340000AD340000DC
:1000A000AD340000AD340000AD340000AD340000CC
:1000B000AD340000AD340000AD340000AD340000BC
:1000C000AD340000AD340000AD340000AD340000AC
:1000D000AD340000AD340000AD340000AD3400009C
:1000E000AD340000AD340000AD340000AD3400008C
:1000F000AD340000AD340000AD340000AD3400007C
:10010000AD340000AD340000AD340000AD3400006B
:10011000AD340000AD340000AD340000AD3400005B
:10012000AD340000AD340000AD340000AD3400004B
:10013000AD340000AD340000AD340000AD3400003B
:10014000AD340000AD340000AD340000AD3400002B
:04015000AD340000CA
:04015400FFFFFFFFAB
:100158007BB972B90029BEBF00204FF0004106E00C
:1001680008BF00281CBF6FF000414FF0FF3000F0BF
:1001780057B8ADF1080C6DE904CE002909DB002B56
:100188001ADB00F04FF8DDF804E0DDE9022304B0E3
:100198007047404261EB4101002B1BDB00F042F845
:1001A800DDF804E0DDE9022304B0404261EB4101DF
:1001B800524263EB43037047524263EB430300F040
:1001C80031F8DDF804E0DDE9022304B0404261EBD8
:1001D80041017047524263EB430300F023F8DDF816
:1001E80004E0DDE9022304B0524263EB43037047A5
:1001F80053B94AB9002908BF00281CBF4FF0FF3186
:100208004FF0FF3000F00CB8ADF1080C6DE904CEEA
:1002180000F008F8DDF804E0DDE9022304B07047D7
:10022800704700BF2DE9F04786468C460846089E71
:10023800154674461946002B40F0C1808542B2FA33
:1002480082F245D94AB1C2F1200300FA02FC954076
:1002580094402EFA03F343EA0C0C4FEA154EA8B269
:10026800230CBCFBFEF80EFB18CC08FB00F943EA94
:100278000C43994528D9EB1808F1FF3704D2994562
:1002880002D9A8F102072B44A3EB0903A4B2B3FBDC
:10029800FEFC0EFB1C330CFB00F044EA0344A042B6
:1002A80014D92C190CF1FF3304D2A04202D9ACF1B5
:1002B80002032C44241A43EA07401EB1D440002309
:1002C80034607360BDE8F0874746DDE76346F1E7D1
:1002D80092BB431B01214FEA154EAFB2200CB3FB72
:1002E800FEFC0EFB1C330CFB07F840EA0343984561
:1002F80061D9EB180CF1FF3004D2984502D9ACF162
:1003080002002B44A3EB0803A4B2B3FBFEFC0EFBD4
:100318001C330CFB07F744EA0344A7424DD92C19B8
:100328000CF1FF3304D2A74202D9ACF102032C44EA
:10033800E41B43EA0040C0E7C2F120039540944023
:1003480020FA03F12EFA03F34FEA154E9040AFB2AC
:100358000343B1FBFEFC0EFB1C10190C0CFB07F849
:1003680041EA0041884522D969180CF1FF3004D2CE
:10037800884502D9ACF102002944A1EB08019BB2DF
:10038800B1FBFEFC0EFB1C110CFB07F743EA014313
:100398009F420ED9EB180CF1FF3104D29F4202D9CB
:1003A800ACF102012B44DB1B41EA004193E76046B4
:1003B800E3E76146F7E76046A4E76346B8E78342A8
:1003C80006D916B9002108467CE7C6E900E0F9E736
:1003D800B3FA83F78FB9834201D3724508D8BEEBCD
:1003E800020460EB030301209C461EB9002169E763
:1003F8003846FAE7C6E9004CF8E7C7F1200CBB40DD
:100408000EFA07F522FA0CF42EFA0CF1BA401C4346
:1004180020FA0CF3B8404FEA144901431FFA84FE4E
:10042800B3FBF9F809FB18300B0C08FB0EFA43EA8A
:1004380000439A4540D9E31808F1FF3004D29A45A1
:1004480002D9A8F102002344A3EB0A0389B2B3FB43
:10045800F9F809FB183308FB0EFE41EA03418E4503
:100468002CD9611808F1FF3304D28E4502D9A8F1BE
:100478000203214443EA0040A1EB0E01A0FB0298CD
:100488004145CE46434602D306D14D4504D20138F4
:10049800B9EB020E68EB0403002EA7D0B5EB0E02F1
:1004A80061EB030101FA0CFC22FA07F3F9404CEA6C
:1004B8000303C6E9003199E74046C5E74346D9E753
:1004C80010F8012B11F8013B012A28BF9A42F7D0F6
:1004D800D01A7047034611F8012B03F8012B002AA4
:1004E800F9D17047034613F8012B002AFBD1181ADB
:1004F80001387047000000002DE9F04706460F4616
:1005080090468AB00AF0E8F84FF47A73A0FB0345E6
:1005180003FB0155E40B012F44EA45444FEAD53566
:1005280008D108213046CDE90045294A08F024FAC7
:10053800002013E0D8F8047026483946FFF7C0FFBA
:1005480078B139462448FFF7BBFF50B130463B46E7
:100558000121224A08F010FA6FF004000AB0BDE841
:10056800F087204618A3D3E900232946FFF7F0FDBA
:1005780005460C4610461946194A0023FFF7E8FDC0
:1005880080460F46104619464EF660220023FFF7B4
:10059800DFFD82468946104619464FF47A720023D9
:1005A800FFF7D6FDCDE904A9CDE90601CDE9082379
:1005B80008213046CDE90287CDE90054094A08F000
:1005C800DBF9B5E7AFF30080005C2605000000000A
:1005D8000BBB00001CBB00001FBB000028BB0000B9
:1005E80080EE36003FBB000010B5044602227F2192
:1005F800002000F0D1F808212046094A08F0BCF98B
:1006080000214FF4203006F059FD002000F0F4F8E6
:1006180020460821034A08F0AFF9002010BD00BFAA
:1006280004B800002DB8000010B5044601227F214F
:10063800002000F0B1F808212046094A08F09CF98A
:1006480000214FF4203006F039FD002000F0D4F8E6
:1006580020460821034A08F08FF9002010BD00BF8A
:100668003DB800002DB8000008B50549054807F059
:100678007AFD00F009F8002000F070F8002008BDAD
:1006880066B800007FB8000038B5104C204609F065
:100698003FFE216868B10E4807F065FD00250B484C
:1006A80009F036FE216850B1094807F05CFD28467C
:1006B80038BD084807F057FD4FF0FF35EFE705480C
:1006C80007F051FD4FF0FF35F1E700BFCCAC00005B
:1006D800DAB80000F1B8000001282DE9FF4104460E
:1006E8000F46164609D90146184807F03CFD6FF039
:1006F8001505284604B0BDE8F081154B8DF80010AB
:1007080053F8300003EBC403B3F8048002238DF8D8
:100718000120CDF804D002938DF80C3083680122B3
:100728009D6801A94346A847051E06DA2B4642469E
:100738002146084807F017FDDBE723463A463146CD
:10074800054807F010FD0025D3E700BF0CB90000ED
:10075800F0AF000021B9000066B90000002238B5EA
:1007680011460546FFF7B8FF041E05DA214608487A
:1007780007F0F9FC204638BD802201212846FFF702
:10078800ABFF041E02DA21460248F1E70024F1E734
:10079800A2B90000D1B90000012870B506460D467F
:1007A80002D811F1800F08D12A4631460F4807F0C8
:1007B800DAFC6FF01504204670BD81EAE173A3EB03
:1007C800E173DBB242EA83020021D2B2FFF784FF71
:1007D800041E04DA2146064807F0C5FCEBE72A4662
:1007E8003146044807F0BFFC0024E4E7F9B90000EB
:1007F80022BA000056BA0000012838B5054607D9C4
:1008080001460C4807F0AFFC6FF01504204638BDD0
:1008180000221146FFF760FF041E05DA224629462A
:10082800054807F0A0FCF1E72946044807F09BFCBF
:100838000024EBE70CB900007BBA0000ABBA00005B
:100848002DE9F04107460E46154600F08FF8C368BB
:1008580004461BB943691A78002A41D10023E36092
:100868006368BB4256F8232008DB324B636120469D
:1008780000F062F84FF0FF30BDE8F081511C616173
:1008880092F80080B8F12D0FEFD1911C6161517879
:100898002D29A16004D192786AB901336360E4E735
:1008A80049B9244B4146284663610AF0BEF800283E
:1008B800DDD0C4F80880D4F80880284641460AF0FC
:1008C800B4F8B8F13A0F636900D070B91B7813B95E
:1008D800636801336360204600F02EF83F20CBE7C1
:1008E8005A1C42611B788360E5E742783A2A0BD0AC
:1008F800002222611B7813B96368013363602046C4
:1009080000F01AF8A068B7E718786268094928B9AA
:1009180001329742626004DD56F82230C4E904319E
:10092800EAE761612D7820463A2DD5D100F004F828
:100938002846A1E76BBC00000268074B1A604268B2
:10094800064B1A608268064B1A60C268054B1A602B
:100958000269054B1A6070471C000020180000202F
:10096800300600202C06002028060020004870478A
:1009780000000020014B1B68184700BF2000002022
:10098800014B1860704700BF2000002030B585B0CB
:1009980004460D461022002168460AF014F9022385
:1009A8008DF80230044B2A4621466846019307F029
:1009B8007DF905B030BD00BF7D09000080B5054652
:1009C8000E461746984606F093FB03460AF00CF9C4
:1009D8000446DFF81890424649F800303946304658
:1009E800A84754F8090002F005FC00BF0800000001
:1009F8002DE9F047058B04462807904611D40229B3
:100A080005F0070540F0CD80204607F099FC78B145
:100A18000138218B042811D8DFE800F0C3106D8558
:100A2800950001290CBF45F0100545F020052583E8
:100A380088F31188BFF36F8FBDE8F08701F0070ACC
:100A4800AA4500F0A6800027B9463E46A368002BB9
:100A580000F0BD8041F00801218388F31188BFF3BD
:100A68006F8FA168002900F0BB800D68002900F095
:100A7800B780334652462046D1F80480C047002D3F
:100A880076D02B6829461D46F0E701F007035A1F68
:100A9800012A1BD8002221F00701062B276889B2FA
:100AA800C4E9002209D13B4603E0628B013262832C
:100AB8001B68002BF9D141F002012046218307F081
:100AC8003FFC00287BD041F0200177E0042B0AD1BD
:100AD80021F0070189B22046218307F031FC10B1CB
:100AE80041F020012183218B01F0070AAA4550D04B
:100AF8000027B946AAE7236921F0070141F006015A
:100B0800062DD3F8009021832DD1B9F1000F40D0E4
:100B180041F00801218388F31188BFF36F8F2046C5
:100B28003949C84729E021F00701236941F0040148
:100B380089B2042DD3F804902183E6D000274FF022
:100B4800040A3E4682E721F00701236941F00501C6
:100B580089B2052DD3F808902183D6D000274FF00D
:100B6800050A3E4672E700274FF0060A3E466DE743
:100B78002B4687E7B9F1000FD1D14FF02003EFF3EF
:100B8800118883F31288BFF36F8F238B23F0080338
:100B98002383258BEA062ED525F01003238305F041
:100BA80007056669218B002EBFF66FAF0023276803
:100BB800C4E9003321F0070141F001012183218BB1
:100BC8004FF0000901F0070AAA457FF43FAF002F54
:100BD8009BD041F00801218388F31188BFF36F8F00
:100BE800002FC7D03D68394633465246204607F0A5
:100BF800D3FB2F46F4E7AB067FF51AAF25F02003A9
:100C0800238305F00705FFE6CD830000044608B5F9
:100C18004FF02002EFF3118382F31288BFF36F8F36
:100C280004F084F9204602F09BFA034807F09BFA87
:100C380002F0F6FBFCE700BFC9BA0000014B0360F5
:100C48000020704700B0000013B5044605F046FECA
:100C5800C0F307230193C0F3074300930821030E51
:100C6800034A204607F088FE002002B010BD00BFEE
:100C7800F2BA000010B5044604F04EF90821034604
:100C8800074A204607F078FE2046064A082107F062
:100C980073FE2146044805F0ADFC002010BD00BFDE
:100CA8008DBB0000ACBB0000B50C000070B58EB069
:100CB80004460D46D0F89C6009F08AFB024609F00C
:100CC80093FF254B1958254B2846002A18BF134671
:100CD800234ACDE90043234B8C4218BF1346082111
:100CE800214A07F049FED4E90A23CDE9022394F901
:100CF8000E3028460093237B08211C4A07F03CFE4F
:100D080006A92022204605F0BDFC626E034600922B
:100D180008212846164A07F02FFE204605A909F0A3
:100D280067FB034630B108212846124A07F024FE23
:100D38000EB070BD6423059A2846B11A4B43B3FB25
:100D4800F6F3CDE90021CDE90263082133460A4ACA
:100D580007F012FEECE700BF08000000B6BB000079
:100D68001DC40000BDCE0000B9BB0000C5BB00001B
:100D7800F1BB000008BC000035BC0000F0B5002540
:100D8800044693B029460AAF1C220BA809F01BFFA2
:100D9800134E1A222021384609F015FF2146114822
:100DA80005F028FC09AA4FF40061304609F014FB4D
:100DB80064224FF400630999CDE90057C1F500603A
:100DC8004243D20ACDE90403CDE902312046069216
:100DD80033460821044A07F0CFFD284613B0F0BD7A
:100DE800381A0020650E00006CBC000010B50446DF
:100DF80009F0B5F808210346024A204607F0BCFD71
:100E0800002010BDB5BC00001346002273B504468F
:100E180001920A21586801AA01F078FA019D95B952
:100E280020EAE0744FF40046294640F2E7304FF4D8
:100E38007A720023C4FB0601FFF7DAF906F03EF9DF
:100E4800284602B070BD2B4601212046024A07F011
:100E580093FD019DF4E700BFCBBC0000F0B504464C
:100E68000D46D0F89C6089B007A909F0C1FA03467D
:100E780030B1082128460F4A07F07EFD09B0F0BDC1
:100E8800204609F0A5FA6423079A0B4FB11A4B4381
:100E9800002818BF0746B3FBF6F3CDE90221CDE9D8
:100EA8000463082123462846CDE90076034A07F063
:100EB80063FDE3E708BC0000B6BB0000EBBC000024
:100EC8002DE9F04387B00546684605F00BFA142370
:100ED800009E082103FB0066164A284607F04CFDD1
:100EE800154F009CDFF85480DFF85490B44203D3C8
:100EF800002007B0BDE8F08323680BB11A7832B937
:100F080023463A46142101A806F0C8FD01AB424623
:100F18000821284607F030FD204609F0F9F9094B69
:100F28000821002808BF4B46074A284607F024FD39
:100F38001434DBE740BE00004ABE00004FBE00008C
:100F480037BE000031BE0000A5C400008B1E022B76
:100F58002DE9F04107468846144637D8102200216B
:100F6800606806F03DFEB8F1020F064607D120235F
:100F780008213846244A07F0FFFC336816E00A22A5
:100F88000021A06806F02CFEC5B22B460821384681
:100F98001D4A07F0F1FCB8F1040F1AD0102D0DD03E
:100FA800202DEAD0082D0CD13378DBB20821384641
:100FB800164A07F0E1FC0020BDE8F08133889BB2B7
:100FC800F4E708213846124A07F0D6FC6FF01500FE
:100FD800F2E710220021E06806F002FE082103462D
:100FE80004460C4A384607F0C7FC102D06D0202DC1
:100FF80007D0082DE5D1E4B23470DCE7A4B2348020
:10100800D9E73460D7E700BF88BE0000B3BE000050
:101018009DBE0000C4BE00002DE9F04F4FF0FF3523
:10102800914601220746884620262C46544BDFF875
:1010380054A185B01A60494652464046FFF700FC65
:10104800411C07D16A1C52D14F4A0121384607F08A
:1010580093FC1DE0732820D0772833D0612817D15E
:10106800DFF828B110220021DBF8000006F0B8FDF7
:1010780005460028DFD109F0B7FD454B1B58162B54
:10108800D9D1DBF80030434A0121384607F074FC17
:101098006FF0150005B0BDE8F08F0022DFF8ECB066
:1010A8001146DBF8000006F09BFD04460028C2D17B
:1010B80009F09AFD364B1B58162BBCD1DBF80030D3
:1010C800354AE1E70022DFF8C4B01146DBF800003A
:1010D80006F086FD06460028ADD109F085FD2C4BAB
:1010E8001B58162BA7D1DBF800302C4ACCE7631C21
:1010F80001D12B4AA9E75FFA86F8C6F3C406002C8B
:101108003CD06B4629461A46A6EB050C0CE0B8F114
:10111800100F1DD0B8F1200F20D0B8F1080F2AD138
:101128000878187031443344A64203D80CEB010008
:101138001028ECD9102CA14628BF4FF010092946D9
:101148004B46384601F022F81035A4EB0904D6E7DF
:10115800088880B21870000A5870E3E708684FEAF8
:10116800102E187083F801E04FEA104E000E83F835
:1011780002E0D870D6E708210A4A67E7204689E7DF
:101188001800002012BF000019BF00002806002028
:101198000C000000D8BE0000EBBE0000FEBE000040
:1011A80036BF00009DBE000070B5104E04460D46C7
:1011B800337881B12BB10121BDE870400C4A07F0AA
:1011C800DBBB01233370082120460A4A07F0D4FB11
:1011D8000123337004E083F001033370002BF2D154
:1011E80029462046BDE8704007F003BCD81100200E
:1011F80050BF00008BBF000070B504463C48037820
:10120800182B02D10B78112B31D00B46013A8D18CF
:10121800AB4225D18B5C0A780370A2F13003092B0D
:10122800344C04D922F02003413B052B04D8236811
:101238003149CA54013323602368022B34D1102268
:1012480000212D4806F0CCFC2C4A136803F8010B4A
:1012580013602B4A1368013313600023236023E0D3
:1012680013F8016B182ED3D11E78112ED0D1244D2E
:1012780008212B682046234A07F07EFB20460021E0
:10128800FFF792FF204B187870B9204A2B68116835
:10129800042B0ADC08B111602B6013F003010BD199
:1012A800126813681BBA136070BD0868043B00BA63
:1012B80041F8040B0120EBE75B4203F0030358BF3E
:1012C8005942022904D1126813885BBA9BB2EAE733
:1012D8000329E9D1106802681104C2F3074301F435
:1012E8007F010B4302F47F4213430360DCE700BF36
:1012F800D911002034060020DB1100204006002010
:1013080038060020B5BF0000DA1100203C06002096
:101318002DE9F84F0023064615460C462949DFF803
:10132800A8800B602949DFF8A890DFF8A8B088F8F2
:1013380000300B60012C2F4655F804AF1ED902224D
:101348004946504609F07EFB80B99AF80220003AD7
:1013580018BF01229244504602221F4909F072FB2D
:1013680030B9012388F80030013CE3E70022F1E7B7
:1013780049465046FFF7A4F8A8B904370022786810
:10138800114606F0B7FB0022144B11461860786826
:1013980006F0B0FB124B134918603046FFF704FF04
:1013A8000020BDE8F88F9AF800202D2AE6D19AF897
:1013B8000120002AE2D053465A460821304607F059
:1013C800DBFAD1E734060020DA11002038060020C5
:1013D800CFBF0000D5BF0000D2BF000040060020EC
:1013E8003C0600200112000013B5094808F090FFE0
:1013F80058B10024074A0123126805490648009499
:1014080000F0A8FD204602B010BD6FF01200FAE708
:10141800B8AC00008CB1000008AF000010B54468FB
:10142800A3604023C4E9001242680821D364114B29
:10143800D162136300231049C2E90E33C2E91133A4
:10144800C2E90633C2E909331468536313641161AE
:1014580053611362C2F88830A36823B11B6C13B1BF
:10146800204606499847A3681B6A0BB1204698474F
:10147800002010BD802D0020782D0020218700003D
:1014880010B504468168083101F06AF9A168204660
:10149800BDE81040014A083101F008B94AC100000E
:1014A80038B583680446D3F86432DB071AD4406839
:1014B80003685B689847054620B9E06808F007F8B4
:1014C800A3681D71A3685B6B13B129462046984732
:1014D800002209F089FBA368C3F80C23034B1858B2
:1014E80001F088FE6FF00F05ECE700BF0800000070
:1014F800014907F0BDB900BF6ABC0000F7B5044652
:1015080080680D46D0F864325A0705D5002107F0E7
:10151800D3F9E06807F0ADFFE368DB6873B9002D25
:1015280039D0A66806F14207384607F09BF900282B
:1015380033D0394606F5A170FEF7CCFFA2682946DC
:10154800E0680DF10603423207F096FF58B9A0682B
:1015580000F5A1714230FEF7BDFFA068423007F0E8
:1015680081F9ADF80600204607F05AFDA368D3F8C4
:1015780060329B0603D50A49606907F079F920466D
:1015880000F02CFFA268BDF806302046D387A26879
:10159800938707F0B1FC03B0F0BD86F84201CDE7B0
:1015A80080AF00002DE9F04FA7B004465422002177
:1015B80011A809F008FB0023CDE90533A3682046EC
:1015C8004233029307F032FD204607F07EFC10B943
:1015D8006069FFF78DFF00264FF0FF37B246B3462C
:1015E8003546B146A06814220021083009F0EBFA0C
:1015F800204607F0E4FBA168E0688A8F423107F0D3
:1016080072FF204607F0F1FF0DF144080396DDE96B
:101618000532012A6DD0132B6ED85FBBBBF1000FCA
:101628000AD0204608F001F81423A26811A9423212
:101638000DEB030007F043FAB9F1000F0CD099F84D
:101648001130FE2B08D1059B26AA02EB830252F823
:10165800542C0AB101330593A068059D4369002BFA
:1016680040F0B680CEB1C3689E422DD00D9600F1F1
:10167800080524E002234146029A06A807F01FFA4B
:10168800D8F8042006990346029231B101290AD1FB
:1016980048B16C4A204607F06DFD6FF007052846F3
:1016A80027B0BDE8F08F059B002B34D0D8F8000098
:1016B80001F076F898B166B1A5680D9608350CAEBC
:1016C8000FCE0FC533682B602046FFF7D9FE0125E2
:1016D800E5E75D4A0121204607F04CFDDDE7059B63
:1016E800CBB129462046D8F8002001F009FA022893
:1016F80009D1059B132B91D9069B022B8ED1012171
:10170800524B534AC6E7032805D0059B4FF0010BFF
:10171800013305937BE7039B33B94846D8F800109B
:1017280007AA07F0C3FA054608F10408013F9DB36C
:10173800EB68BBF1000F08D0F3B1204607F076FC48
:10174800204607F0D9FB434AC4E7ABB1AE46A368CD
:10175800DDF814A003F1080CBEE80F00ACE80F0098
:10176800DEF80030CCF80030AB682BB96B7CFE2B70
:1017780004BF2F7C07F1FF37D5F804C0BCF1000F78
:1017880008D0AE460CAEBEE80F000FC6DEF800303B
:1017980033606646A94603E0059B53B101230393D2
:1017A800069B17B9022B7FF432AF059B01330593D3
:1017B8002DE7A368DB6913B1DB68002BEED1264B5C
:1017C800012100932046119B244A07F0D3FCE5E74A
:1017D800037EA5EB0A05B3B14FF6FF72417EFF29E0
:1017E80018BF0A469D4202D313449D420BD9836811
:1017F800012120461A4A07F0BDFC2046FFF740FEAB
:101808006FF015054BE7012107F04BF8A06800F5CC
:101818003E7007F06AF8A36811AA294602EB8A020B
:1018280020465B6998470546A0684FF0FF324FF0A5
:10183800FF3300F53E7007F028F80021A06807F094
:1018480030F82CE758C100006CC10000CDC1000081
:101858008CB800008AC10000B9C10000BDC40000F6
:10186800F1C10000022210B5836804461A7183682A
:101878009B6BBBB906F0C1FF8368D3F86432DB0405
:101888000BD50321084B094A07F074FCA0686FF4D4
:10189800805100F5197006F0C4FF2046BDE81040DD
:1018A80000F0E6BE10BD00BF0CC2000051BE000033
:1018B8002DE9F04F044680680121B1B000F5197098
:1018C80006F0A4FFA3681B79022B20D100230993FB
:1018D800A36860689E6B03681D6909AB0EB310228C
:1018E8001BA9A847099B93B10121A06806F0D9FF5D
:1018F8002046099A1BA9B0470021A06806F0D1FF2D
:10190800A3689B6B002BE3D12046FFF7ABFF6FF07A
:101918000101A06800F5197031B0BDE8F04F06F07C
:1019280080BF01220DF12301A847099B002BEED0AF
:101938009DF923209DF82310002AA368C8DB5A7953
:10194800032A00F28D82DFE812F004007A02910285
:101958008B020D297BD00A2958D0B3F864220929B3
:101968006FF3CA02A3F86422A06800F085803DD80E
:101978000029ADD0082900F0F1810346D3F8602290
:101988009207A5D501391629A2D801A252F821F04B
:10199800151F00009F1D0000A71D0000971D0000D7
:1019A800091F0000C51D0000D9180000D918000043
:1019B800D9180000D9180000CD1D0000D51D000061
:1019C800D9180000FF1D0000D9180000091E0000EA
:1019D800D9180000D9180000D9180000D91800003B
:1019E8000D1E0000D9180000371E00001B2940D02A
:1019F8007F2900F0BF81A1F120025E2A0346BDD8ED
:101A0800012106F059FF9DF82310B1E0D3F86422B4
:101A1800C2F3C7022AB1D3F86422C2F3C7020A2A62
:101A2800ACD1B3F8642261F3CA02A3F86422A568B2
:101A3800A98FC1B9284606F03FFFE06807F019FDF5
:101A48006069FFF755FD2046FFF70CFF40E7D3F824
:101A58006422C2F3C702002AE3D0D3F86422C2F397
:101A6800C7020D2ADCE72046FFF79CFDC5F81003E6
:101A7800E9E7012343712BE7D0F860329B077FF534
:101A880027AF012106F018FFA068838FFF2B3FF4D2
:101A98001FAF0025C28F00F1420100F5A17009F0C7
:101AA8006BF8A3681BA9DA8F0BA8134483F842517B
:101AB800A268142302F5A17207F001F80B99142902
:101AC8003FF606AF30AB03EB810343F8545CA368E1
:101AD800DA8F134493F84130202B02D0093B042BB2
:101AE8004AD800294BD100250A950A9B30AA02EB57
:101AF800830353F854AC0026504606F0B3FEB346B1
:101B08008146B04637463946284616AA00F0C4FB37
:101B1800034600283FD1012EA76864D10A9B30AA4A
:101B280002EB830353F8540C06F09CFE414606462C
:101B380007F10802284600F0AFFB0568284606F0C2
:101B480091FE864205D0821B92B22046A91907F061
:101B580051FBA068C38F034493F84230202B31D047
:101B6800093B042B2ED9D0F86032DF072FD420216F
:101B7800204600F047FDABE60129B4D90139002021
:101B88000CAB009301900AAB1BAA07F0BAF8054604
:101B98000028AAD19CE61B684A465146184603937A
:101BA80008F050FF60B9039B1846FEF79BFC5845A8
:101BB80038BF5846002E08BFB8461FFA80FB0136CA
:101BC8000137A0E70121204607F0C8F980E6002187
:101BD80006F07CFE2021204600F014FD0121A068BB
:101BE80006F074FE74E604907FF672AE0A9A30AB83
:101BF80003EB820252F8543CC1461846039306F0A0
:101C080031FE049B05903B860496A2684946284607
:101C1800083200F041FB039BD0F800A009F101094C
:101C28004BB1BAF1000F06D019465046059A08F094
:101C380009FF0028E9D1A168BAF1000F4DD1A1F838
:101C480030A0049B013B0493DFD16069FFF750FC8F
:101C5800204600F00DFD0A9B30AA02EB830353F8DF
:101C6800540C06F0FFFD414611AA8146284600F0B3
:101C780013FB0746A0683968FF2200F5A17008F039
:101C8800F3FE3B684FF6FF7708F1010AB846039365
:101C98005146284616AA0AF1010B00F0FDFA002861
:101CA80050D00022A168036801F2411111F801EF38
:101CB800985C704503D110B101324245F6D1B9F1B3
:101CC800000F01D04A4506DBBA42A8BF3A46013E9A
:101CD800012E97B236D0DA46DAE79848069106F030
:101CE800C1FD069900EB0B074A8DBFB2121A92FB91
:101CF800F7F2504692B20791069206F0B3FD0799A3
:101D08003F1A088E069A00F1010CA1F830C0B0FB0A
:101D1800F2F102FB110080B2BFB260B90621204681
:101D2800864B874ACDF800A007F024FA39462046AA
:101D380000F03EFB85E7534606212046814A07F01E
:101D480019FAF3E7002F3FF4C3AD0399A7EB090293
:101D5800204692B2494407F04DFAB9E5D0F860320E
:101D68009E077FF5B5AD012106F0A6FD204607F0D8
:101D78005EFAADE5D0F860329D077FF5A9AD012187
:101D880006F09AFDA368D3F860321907EED420460E
:101D980007F032FA9CE5204607F04FF998E520460F
:101DA80007F044F9204607F090F810B96069FFF78A
:101DB8009FFB0121A06806F07FFD44E6204607F05E
:101DC80044F985E5204607F049F981E5D3F8603202
:101DD8009B0603D55C49606906F04AFDA368D3F801
:101DE80060329F0603D55949606906F041FD2046D7
:101DF80000F03EFC6CE500212046FFF77FFB67E51D
:101E08000121F9E7204607F00BF9204606F0F5FC1A
:101E18000121A06806F050FDA368D3F860329E0641
:101E28007FF556AD4A49606906F022FD50E5204627
:101E380000F04EFB0121A06806F03EFD48E55B2955
:101E480002D102225A7143E5D3F860329D0706D5C4
:101E5800622907D14FF0FF31204607F0A3F8A368A5
:101E68000022EFE76629FAD10121F5E700225A712D
:101E7800A268D2F8603298077FF52AADA1F1310344
:101E88001B2B3FF625AD01A151F823F0111F0000CF
:101E98001D1F0000311F0000051F0000D918000099
:101EA800D9180000D9180000D9180000D918000066
:101EB800D9180000D9180000D9180000D918000056
:101EC800D9180000D9180000D9180000091E000010
:101ED800FF1D0000C51D00009F1D0000D91800004F
:101EE800091F0000D9180000151F0000D9180000AC
:101EF800D9180000D9180000211F000003235371CE
:101F0800204607F093F8E3E403235371204607F0D3
:101F180087F8DDE403235371A068D0F8601201F05C
:101F2800010181F001015BE603235371A368D3F833
:101F380060329B077FF5CCAC29E700BF1CC40000CA
:101F480050C2000051BE000085AF00008AAF0000FB
:101F580080AF00002DE9F043044680688846D0F839
:101F68000C1315461F4689B0002967D14FF44572F6
:101F780008F029FEA36822681A60E06807F01BFBD6
:101F8800A06800F53E7008F04CFA4FF42A794FF437
:101F98001A76A068304408F005FDA068002283196D
:101FA80001214844103608F0D3FCB6F52A7F09F120
:101FB8001409EED10026A36902211E60A06866F309
:101FC800820500F5197006F021FC5022A3685A8595
:101FD8001822A3681A85D4F80890D9F8000006F0EA
:101FE80041FC89F82C00A3684146C3F86052606838
:101FF800144A03681D682346A8470546D0B901223C
:10200800A3681A71D4E9090100220023CDE9062347
:102018000E230393109B4FF40062CDE901730495DE
:10202800094B009404F0E2FBA368C3F80C03216A8F
:1020380004F018FB284609B0BDE8F0836FF0770577
:10204800F8E700BF97880000A920000010B50446F3
:1020580080680379012B1DD14FF0FF324FF0FF3319
:1020680000F53E7006F011FC2046082100F0F2F958
:10207800206806F0F7FB18B10849606906F0F8FB1C
:102088002046FFF7EFFBA06800F53E7006F02DFC38
:10209800002010BD6FF08500FBE700BF69BC0000A1
:1020A800F8B504464068002103689B6898470028F3
:1020B8003FD12046FFF7CAFF00283AD11D4E1E4FD8
:1020C800A06800F52A704FF0FF324FF0FF3303216C
:1020D80005F080F90546A0684FF0FF324FF0FF3356
:1020E80000F53E7075B106F0D0FB20462B46012165
:1020F800124A07F03FF8A068BDE8F84000F53E70C6
:1021080006F0F3BB06F0C1FB32460221204606F07A
:1021180093FB20463A46294606F08EFB6068036822
:102128005B6903B19847A06800F53E7006F0DDFBD7
:10213800C6E7F8BDA9140000B918000056C200008F
:1021480010B5044608210C4A06F016FC2046082162
:102158000A4A06F011FC20460821094A06F00CFC40
:1021680020460821074A06F007FC20460021064AB7
:1021780000F09CFA002010BD6DC20000ABC2000048
:102188000AC300005EC30000F8C30000F8B51E468D
:1021980017460B462F4A0821044606F0EDFB6EB39E
:1021A800082120463B782C4A06F0E6FB01256A0701
:1021B80004D108212046294A06F0DEFBAE4223D985
:1021C800082120467B5D244A06F0D6FB0135102DF8
:1021D800EDD108212046224A06F0CEFBD6B90821C7
:1021E80020461E4A06F0C8FB0125AE422B4613D8EE
:1021F80008212046194A06F0BFFB18E008212046AE
:10220800184A06F0B9FB012508212046154A06F0B0
:10221800B3FBDBE700252B46FB5C0821A3F120027A
:102228005F2A28BF2E2320460F4A06F0A5FB01355A
:10223800102D07D06B07D8D108212046074A06F091
:102248009BFBD2E72046BDE8F8400821074A06F084
:1022580093BB00BF0EC4000015C400001DC40000DD
:102268001FC400001BC4000041C4000021C40000BA
:1022780010B5044613460A460146064801F00EFB0F
:1022880023691B7923B12046BDE8104006F0B7BB8F
:1022980010BD00BF1F8A000038B50B46154648B967
:1022A8001449154A521AB3EB920F05D251F823502C
:1022B800284638BD84680CB90025F9E70F4A9442CE
:1022C8000AD30F4A944207D21846294622689047F3
:1022D8002B68002BECD1EFE70A4A944202D30A4A52
:1022E800944205D3246814225343E518E358F0E7D1
:1022F8000133F8E734AF000068AF00007CAF00009E
:1023080080AF000068AF00007CAF00000023F7B585
:102318001646027804462D2A019305D16FF015035D
:102328000020336003B0F0BD08F05EFC05460B4F9B
:102338000A46C35101A9204605F052FCEB59222B4D
:1023480002D16FF02103EBE7002BE7D1019BA342F9
:10235800E4D01B78002BE5D0E0E700BF0C000000BC
:102368008368D3F860329B0603D50249406906F0BA
:102378008DBD704790AF0000014906F087BD00BFD2
:102388006ABC00000A1E0DDC0ED042238168D1F819
:102398006012890608D5002A04494069B8BF52422C
:1023A80006F074BD4123F1E7704700BF3DC400004B
:1023B8000A1E0DDC0ED044238168D1F8601289060C
:1023C80008D5002A04494069B8BF524206F05EBDEC
:1023D8004323F1E7704700BF3DC400002DE9F047F3
:1023E8008568044605F14200FEF77CF8002398460C
:1023F80095F82C70DFF8549086B2A268558DED1BC5
:10240800B54209DB002E1FDD4233606910491A44CA
:10241800BDE8F04706F03ABD1D442A4492F842A0B0
:1024280082F84280A26842331A444946606906F03D
:102438002DFDA3682B4483F842A0A3685B8DDB1BAA
:10244800F61A00272B46D8E7BDE8F0878CB80000BD
:1024580051BE000008290A4617D8836893F82E1041
:10246800914212D083F82E208368082AD3F860326C
:1024780005D0990609D50549406906F007BD9B06B0
:1024880003D50349406906F001BD704744C4000004
:1024980095AF000038B50D4609780446FFF7DAFF16
:1024A8006A78072A11D8A36893F82F1091420CD0A4
:1024B80083F82F20A368D3F860329B0605D560699E
:1024C8000249BDE8384006F0E1BC38BD4DC4000003
:1024D800F8B5836804469A8F002A51D0D98F00290D
:1024E8004ED0413103F142050B441846A84206D3A9
:1024F800014611F80169202E39D0A84239D286B296
:102508009DB2AB1B9BB2591C471CD21A01443846DA
:1025180008F03FFBA268711B938F204613FA81F3E2
:102528009387A36809B29A8F1344002283F8422044
:1025380006F014FDA368D3F860329A0603D5114952
:10254800606906F0A3FC3B46082120460E4A06F0C7
:1025580011FE2046FFF704FFA368D3F860329B06FC
:102568000ED560690949BDE8F84006F08FBC0846F9
:10257800BCE7014611F80169202EC0D00846BCE727
:10258800F8BD00BF9AAF000051BE00009EAF00002A
:102598002DE9F04104460D4617460AB1FFF7E0FE63
:1025A800A368DA8FD3F86012423213444A071FD562
:1025B8001846FDF797FF0646DFF8408096B9A368EE
:1025C8009A8FDA87A06806F06EFC20B107B115B1C2
:1025D8006069FFF7D1FE69422046BDE8F04109B2C3
:1025E80006F0BCBC4146606906F050FC013EE5E7D8
:1025F80008212046024A06F0BDFDE0E7BDCE0000F6
:1026080051BE000013B583688DF80710D3F8602217
:102618000446D00722D5D98F9A8F8A421ED0481CEB
:102628009DF80720D8870B4483F84220A368D3F885
:102638006012890710D5D3F86032606913F0040F6F
:1026480018BF2A22094906F021FC204606F03DFC65
:1026580010B16069FFF790FE02B010BD012220465C
:102668000DF1070106F093FDF6E700BF41C4000035
:1026780010B50446836802211B68084A06F07AFDF3
:10268800A368D3F860329B0707D52046FFF7A6FE5C
:102698002046BDE8104006F03EBC10BD51BE00000B
:1026A800014906F0D5BD00BF6ABC00002DE9F04F16
:1026B8000E460021044617460D4689B0304603AA47
:1026C80001F10108FFF7E8FDB0B995B127B13A4625
:1026D8000821204606F04EFD00211E4FDFF87890B5
:1026E800DFF878A0304603AA01F10108FFF7D4FD0E
:1026F80060B909B0BDE8F08F006810B1FDF7F2FECF
:1027080080B2854238BF05464146D7E703688BB19A
:102718001A787AB1D0F804B04A46CDE900530821B6
:102728003B46204606F026FDBBF1000F04D1606948
:10273800FFF7B6FF4146D5E7524620463B460821FB
:1027480006F018FD6A1D5946204692B206F08DFD26
:10275800F0E700BF70C4000056C400005DC400006C
:10276800F7B50F6805460E46A7B13846FDF7BAFE1D
:1027780084B2094B2846009308213B46074A06F0D5
:10278800F9FC2846E21C716892B203B0BDE8F0403B
:1027980006F06BBD3C46ECE76CC4000051C200007B
:1027A80010B507490446FDF78BFE38B120460549A8
:1027B800FDF786FEB0FA80F0400910BD0120FCE765
:1027C80062C4000065C4000010B583680446D3F8ED
:1027D80060329B0603D50649406906F0BDFD5022CC
:1027E800A36800205A851822A3681A8510BD00BF67
:1027F800A2AF000008B5836908211B68024A06F0E9
:10280800BBF8002008BD00BF73C400002DE9F341E8
:102818000F4A0821054606F0AFF800230D4C0E4E6E
:10282800DFF83880B44203F1010703D3002002B077
:10283800BDE8F0812A6A9BB20192A2680821126859
:1028480028460092424606F097F82C343B46E9E7C2
:1028580083C4000008AF000034AF00009BC4000030
:1028680008B5024906F0ADF8002008BD6BBC0000B1
:102878007FB5044600250E4EA2680DF10E03012116
:10288800E06802F5A17206F0F7FDBDF80E00A36836
:1028980050B103F5A173009332462B460821204618
:1028A80006F06AF80135E7E783F8420104B070BD25
:1028B800ACC4000010B5044606F093F8082103469E
:1028C800024A204606F058F8002010BDCBBF000091
:1028D800022907B50DD15368012101930C4B0093D0
:1028E80013680C4A06F048F86FF0150003B05DF85D
:1028F80004FB8368084AD3F86032082113F0020FFA
:10290800064B08BF1346064A06F036F80020EDE7E6
:10291800C3C40000BAC40000B6C40000F1BD000082
:10292800D8C4000010B583680446D3F860329A060C
:1029380003D50749406906F00FFDA368D3F8603254
:102948009B0603D50349606906F006FD002010BD0B
:10295800A9AF0000AEAF0000F0B50129044685B06C
:102968000CD05368012101935F4B009313685F4AB1
:1029780006F002F86FF0150005B0F0BD8368D3F8D3
:102988006032990603D55A49406906F0E5FC0025EE
:102998006FF0F9012046FFF7F5FCFA212046FFF712
:1029A80007FDA0684FF48072294600F5A1708DF8E4
:1029B8000B5008F008F94F49606906F0CDFC6069D2
:1029C80006F01DF84FF47A766068012203680DF16D
:1029D8000B011F6903ABB847039BF3B9013E4FF4E2
:1029E8007A70B6B207F08FFC002EEDD1A368D3F849
:1029F80060329B0603D54049606906F0ADFC502261
:102A0800A36820465A851822A36803211A853B4AE1
:102A180005F0B2FF6FF00700AEE79DF80B20A36842
:102A28001B2A53D093F842111B29CDD1522A4DD1DC
:102A38005A19002382F84231A66896F843215B2A86
:102A48002BD1022506F2431010F8011F2A463B2914
:102A580005F10105ADB223D1FF2AC7D002F5A17255
:102A680016FA82F1002211F8010F18BBFA2A28BFC2
:102A7800FA22FA2B28BFFA2386F84201A1684A8570
:102A8800A2681385A368D3F860329A0603D51A4959
:102A9800606906F061FC00206EE786F84231A5E720
:102AA80003EB8303303901EB4301B5F5807F8BB22B
:102AB800CAD19BE7013502EB8202ADB2303800EB98
:102AC8004200B5F5807F82B2CDD18FE72B44013526
:102AD800ADB2092D83F842217FF676AF0022A368B4
:102AE80083F8422182E700BFC3C40000BAC40000D3
:102AF800B4AF000023C50000B8AF0000E9C400006F
:102B08002DE9F04F07461546894689B021B1104690
:102B180006F057FD00285BD1032455E05C463CE0F5
:102B280029460AF5A17007F0BBFF0646002854D0D5
:102B3800FDF7D8FC82B2601C31460132304408F0FF
:102B480028F822465946304608F016F84FF0200378
:102B58003355BAF8403008F1010801331C44AAF88B
:102B68004040002401994B1C484603AA0193FFF7F3
:102B780093FB0646E8B100222846316806F0D5FEE8
:102B88000028EFD1D6F800B0D7F808A0BBF1000FA5
:102B9800C4D05846FDF7A6FC84B2BAF840302344A6
:102BA800FF2BBDDD2B46032138460D4A06F0E2FA1D
:102BB8000124B8F1000F07D0B8682A4600F1400197
:102BC80000F5A17006F04BF8204609B0BDE8F08F7B
:102BD8004FF0000802244146C5E70224E9E700BF98
:102BE800EBC90000014804F017BE00BF98B400000C
:102BF80038B5044618B90F4B0F485B6898476168A9
:102C0800B1F5683F10D0B1F5680F0DD00B4DA94252
:102C18000AD011F46861206807D00146084807F017
:102C2800AAFB00232360656038BD142207F0CBFFA0
:102C3800F9E700BF9C0100203DCA00002C5F5CA999
:102C48005C0E002008B560B34368B3F5683F0ED04A
:102C5800B3F5680F18D0144A934220D000684FF09B
:102C6800FF324FF0FF3303F07BFE58B115E001222D
:102C78000368D3E8EF1F002903D1C3E8E02F002839
:102C8800F7D10AD1002008BD0368084A1B7803F56C
:102C9800807352F82330002BF4D00548F3E7054839
:102CA800F1E76FF4E040EEE72C5F5CA90000035009
:102CB800E98FFFFFEA8FFFFF08B520B34368B3F53C
:102CC800683F09D0B3F5680F13D0114A93421DD05D
:102CD800006803F007FE14E000220368D3E8EF1F42
:102CE800012903D1C3E8E02F0028F7D109D009480A
:102CF80008BD00210368084A1B7803F5807342F871
:102D080023100020F4E76FF4E040F1E70348EFE711
:102D18002C5F5CA9E98FFFFF00000350EA8FFFFFDB
:102D280010B5044618B91D4B1D485B689847636881
:102D3800B3F5683F2FD0B3F5680F2CD0194A9342EA
:102D480019D1236803BB4FF0FF324FF0FF33214600
:102D5800154803F021FC08B923681BB90F4B134829
:102D68005B68984714220021206807F02CFF4FF475
:102D78006863636008E0B3F5683F0DD83A2B03D069
:102D880040F6BA629342DED1206807F04AFB6368D6
:102D980043F03A03636010BD054AF3E79C01002045
:102DA8003DCA00002C5F5CA95C0E002063CA0000CD
:102DB8003A00003A08B5064940231422054807F0AE
:102DC800CCFABDE808400449044804F097BD00BFA8
:102DD8005C0900205C0E0020A0B40000B4B4000020
:102DE80030BFFFF7FDBF00BF124B134A2DE9F0417A
:102DF800D518013DB5FBF3F5DFF840805D43104B76
:102E0800074608EB0304013CB4FBF3F403FB04544A
:102E18000E1B30460B4907F0AFFE701942460021E1
:102E2800083E07F0D0FEC7F8A86004F10800BDE826
:102E3800F08100BF01000000000000000800000051
:102E48000400000080AF0000044B9968586988426C
:102E580003D003494FF080520A607047C40F002026
:102E680004ED00E0154B9A6A12F0007F9A6A14BFCD
:102E78001E201D2012F0807F9A6A18BF1F2012F4AE
:102E8800801F9A6A18BF022012F4002F9A6A18BF8E
:102E9800212012F4802F9A6A18BF222012F4003FD2
:102EA8009A6A18BF232012F4803F9A6A18BF242018
:102EB8006FEA02426FEA12429A62704700ED00E040
:102EC80010B5194B0246986A9C6A10F4805F14BFCB
:102ED8001720162014F4006F9C6A18BF1820A40548
:102EE80009D5986B986A000404D51AB19A6A22F435
:102EF80000429A6219200C4B9A6A12F4806F9A6AFF
:102F080018BF1A20D2050CD49B6A13F4005F18BFAF
:102F18001C20054A936A43F47F43936200230B7095
:102F280010BD1B20F5E700BF00ED00E010B51C4BFD
:102F38000246986A9C6A10F0100F14BF11201020E6
:102F480014F0080F9C6A18BF1220A40709D5586B03
:102F5800986A000604D51AB19A6A22F080029A6229
:102F680013200F4B9A6A12F0010F9A6A18BF1420A7
:102F780012F0200F9A6A18BF1520D40658BF9B6A12
:102F8800074B9A6A920642BF5A6A22F400525A6262
:102F98009A6A42F0FF029A6200230B7010BD00BFCC
:102FA80000ED00E0F0B5474B04465B6800258BB0A8
:102FB800C3F3080385F31188BFF36F8F02F07F40D6
:102FC800B0F17F4F11D102F00C0008280DD0100786
:102FD8004CBF0C4601250022033B8DF80720032B2C
:102FE80005D8DFE803F02462665F2C46F3E7002388
:102FF8009DF80720CAB902AE04F1200732462068BE
:103008006168083403C2BC421646F7D1099A002DFC
:1030180053D0C2F3080121B96FEA52226FEA422263
:103028000992184602A906F013FB0BB0F0BD254B18
:10303800DA6A9107DBD4DA6A002AD8DBDA6A520046
:10304800D5D55A69A16942F480725A61BFF34F8F8E
:10305800BFF36F8F5A6931F8021C22F480725A61EB
:10306800BFF34F8FBFF36F8F4DF60272914209D0B5
:103078009A6AD2B242B101200DF10701FFF756FF5B
:103088000346B5E72368B3E79A6A12F47F4F05D081
:1030980001200DF10701FFF713FFF1E79B6AB3F574
:1030A800803FA4D3FFF7DEFEEAE700200DF1070119
:1030B800E4E700200DF10701EDE722F4FF7222F0AA
:1030C8000102ADE700ED00E0044B5A6942F010023E
:1030D8005A615A6942F480625A61704700ED00E013
:1030E800EFF30880EFF3098101B57246FFF75AFF45
:1030F80001BD00BF002080F31488BFF36F8F00204C
:1031080080F30A8880F30B8800F094FC00201149B2
:103118000860BFF34F8F104880F3088800F044F828
:10312800202080F311880D484FF0AA014FF4006267
:1031380007F0F9F809484FF40061401880F309884E
:10314800EFF314800221084380F31488BFF36F8FD4
:1031580000F00CF994ED00E078270020381A0020E0
:10316800BFF34F8F0549064BCA6802F4E062134368
:10317800CB60BFF34F8F00BFFDE700BF00ED00E05D
:103188000400FA05002318460649D1F89020C2F336
:103198000722934200DB7047C1F89830C1F8A000BD
:1031A8000133F6E700ED00E010B572B6002484F3B1
:1031B8001388FFF7E7FF23464FF0FF300C4A03F16F
:1031C80020010133102B42F82100F8D100234FF0E1
:1031D800FF30074A03F160010133102B42F8210048
:1031E800F8D162B6BFF34F8FBFF36F8F10BD00BF2A
:1031F80000E100E0084B9B6883420BD1EFF30583A5
:1032080043B1064B5A6842F080525A605A6A22F417
:1032180000425A6207F001BAC40F002000ED00E036
:103228006FF00A01094A9368C3F8B0100849C3F857
:10323800AC004B6843F080534B60002383F3118844
:10324800BFF36F8F9368D3F8B0007047C40F0020A6
:1032580000ED00E017498A684FF030001044EFF3A2
:10326800098C80E8F01F202080F31288BFF36F8F4D
:10327800114F4FF000664A698A603E604FF0A8041B
:10328800141920680D4C2060D2F8AC000023C2F855
:10329800AC3080F3118802F1300090E8F01F8CF315
:1032A800098802F1000004B506F0E3F9BDE804401E
:1032B80070470000C40F002004ED00E0780E0020E5
:1032C8001EF0040F0CBFEFF30880EFF3098081694B
:1032D80011F8021C0229FFD001B506F0BBF901BDA7
:1032E80040B2002807DB01234109034A00F01F0010
:1032F800834042F82130704700E100E040B20028E6
:103308000CDB01220649430900F01F0082402033EC
:1033180041F82320BFF34F8FBFF36F8F704700BF73
:1033280000E100E0054B420953F82220012300F098
:103338001F0003FA00F01040704700BF00E100E0F2
:1033480040B2002801F10101ACBF00F16040064B1A
:103358004FEA4111C9B2ABBF00F5614000F00F0060
:1033680080F800131954704714ED00E00B4A08B5B3
:103378000B4B22F07F029A60BFF34F8FBFF36F8F22
:10338800D3F8882022F47002C3F8882003F036F8B6
:1033980003F0C6FE00F07AF803F07EF800000000A3
:1033A80000ED00E042F8203C009B0B4942F81C3C31
:1033B800019B21F0010142F8183C029B42F8081CCD
:1033C80042F8143C4FF0807342F8043C0023203A42
:1033D8000265C0F8AC307047C50900000B4BD0F847
:1033E800A84098600A4B1C60D0F8983083F30B888B
:1033F800104681F30988002163B681F31188BFF371
:103408006F8F00220023FDF7D9FA00BFC40F0020F8
:10341800780E0020014910220A60704710ED00E084
:1034280072B6404080F31188BFF36F8F01B500F08A
:10343800BDFA00280AD0BFF34F8F30BF00BF00BFCE
:1034480000BF00BF00BF00BF00BF00BFBDE8014014
:1034580062B6BFF36F8F704772B6494081F3118827
:1034680001B500F0A3FA00280AD0BFF34F8F20BFA0
:1034780000BF00BF00BF00BF00BF00BF00BF00BF4C
:10348800BDE8014080F3118862B67047002320210F
:103498000348C2180133452B82F80013F9D170474D
:1034A80000E100E001B5EFF30580A0F110004FEA5C
:1034B800C0000449014409C99847BDE801400249D0
:1034C80008470000E0AC0000512E00001FB5094C71
:1034D800094A23460121094800F0EAF8002303932A
:1034E800074B0121E41A01A80193029400F0EAF8BD
:1034F80004B010BD0000072000000020C4B4000084
:103508005802002010B50C7A0B6804F01F0223F053
:103518001F031A43CB68640923F01F03054943EAD4
:10352800440343F00103C1F89800C1F89C20C1F896
:10353800A03010BD00ED00E02DE9F04F0F46144615
:1035480006464FF000084E4D85B0B84580F294808D
:10355800D6F80490B9F1000F36D0B9F11F0F40F238
:10356800898019F01F0F40F08580D6F800A01AF066
:103578001F0F7FD1504606F081F8834609EB0A00F9
:10358800013806F07BF8834574D11BF1160F71D012
:103598005C456FDDC5F898B0D5F89C10C5F898B0B3
:1035A800D5F8A03021F01F0143F01F0AD6E90032F8
:1035B8001A44994202F1FF391ED1CA4508D1314651
:1035C8005FFA8BF006F063F808F101080C36BCE7E7
:1035D8003146C5F898B0D5F89C3022F01F0203F0A8
:1035E8001F031343C5F89C30E0B206F050F810F101
:1035F800160F3FD0441CE7E7C5F898B0D5F8A020CF
:10360800013B23F01F0302F01F021343CA45314652
:10361800E0B2C5F8A030E8D006F039F810F1160F7E
:1036280028D0C5F898B0D5F89C209DF808300AF144
:10363800FF3A62F304038DF80830D5F8A0309DF8FE
:1036480008205B0863F347128DF80820D6E900329A
:103658001344009323F01F03411C5344A3EB0903B5
:10366800C8B223F01F030728039303D86946FFF75E
:1036780049FFBFE76FF01504204605B0BDE8F08F9D
:1036880000ED00E00522044BC3F89420BFF34F8FF0
:10369800BFF36F8F704700BF00ED00E0BFF35F8F8F
:1036A8000022024BC3F89420704700BF00ED00E0F1
:1036B80010B5034C2278FFF73FFF207010BD00BF04
:1036C800FB1100202DE9F74F294D8A4606464FF099
:1036D8000008AB46274FD0451BDAD6F80490B9F15D
:1036E800000F3FD031680846019105F0C7FF0199E6
:1036F800044609EB0100013805F0C0FF84424FF091
:1037080014021D4B08D002FB08F36FF015024BF8AA
:10371800032003B0BDE8F08F14F1160F2C60F8D029
:103728001978A142F5DD02FB08B0C7F89840C7F840
:103738009840D7F89C4000F10801007B64F304002E
:103748000871D7F8A0000C79400860F347140C7191
:10375800D7F89C1021F01F016960D7F8A01021F05C
:103768001F01296108F1010814350C36B3E700BFC1
:103778007C0E002000ED00E0FB110020F0B5384D74
:1037880087B02C68082C67D80020FFF787FF354BD7
:10379800354AC3F8C02084420DD1344D01A82C709D
:1037A800FDF74CFA00240646314FA6420AD1FFF72E
:1037B80069FF00204EE0696801EB0011FFF7A2FEE7
:1037C8000130E8E70199200101EB0413DA683A4077
:1037D800B2F5001F22D0B2F5800F2CD0B2F5801FB1
:1037E80036D15A689B680958013B22F01F000344F0
:1037F8000120844623F01F0340EA4C108DF8100086
:103808002878CDE902210728059321D802A9FFF7D6
:1038180079FE2B78013401332B70C6E75A689B6810
:103828000958013B22F01F0003444FF0020C01200D
:1038380023F01F03E0E75A689B680958013B22F010
:103848001F0003444FF0000C062023F01F03D3E7AA
:103858006FF0150007B0F0BD4FF0FF30FAE700BF7A
:10386800D0B4000000ED00E0AAFF4400FB110020E6
:103878000000F0FF08B5024B1B689847002008BD00
:10388800900E0020034B044A1860937843F002031B
:1038980093707047900E002084000020F0B587B028
:1038A80007460E4614460021102268461D4607F0BA
:1038B8008AF902238DF80230054B2A4621466846CC
:1038C800CDE90476019304F0F1F907B0F0BD00BF2B
:1038D800D196000008B50649064821F00701C1F154
:1038E800005202F5E02204F0D3FC002008BD00BF1E
:1038F800C72D0020940E002007B50DF1070006F033
:1039080055FB114B98421CD14FF480620F4B104964
:10391800C3F8B8254FF40062C3F83C259DF80700AA
:1039280006F038FB0B499DF8070006F02EFB012036
:103938009DF80730984001F041FC002003B05DF885
:1039480004FB6FF00B00F9E70000AD0B00A002507C
:103958002CA0025028A10250054B03EB8000D0F8A0
:10396800003223F0E04343F04053C0F80032704780
:1039780000258450012208B50A4B0B49C3F80025DD
:1039880002230020C1F8D036FFF7E6FF1046FFF704
:10399800E3FFC1F80427C1F80429C1F8002B00206F
:1039A80008BD00BF0010005000400050052370B54E
:1039B800144D154E2C780134B4FBF3F303EB830359
:1039C800E41A06F0CCFA114A137823B156F82430D9
:1039D800C01A072814D94FF05023D3F8141141B155
:1039E8000021C3F81411D3F814312C700CB9012339
:1039F80013702C7806F0B3FA46F82400012070BD45
:103A08000020FCE7FD110020A00E0020FC11002082
:103A180048B1054B054A1B68B3FBF2F35843044B06
:103A280043F00103184770470001002040420F008F
:103A3800C0AF000001F0A4BA084B70B5C31A0D4618
:103A480007499B10044659434022064805F08CFF5D
:103A58002B4601462046BDE870401847C80E002096
:103A6800B76DDBB67CAC0000402373B50B4C0093FC
:103A7800041B0B460D460A49A41061430646094A31
:103A8800094805F09EFF011E05DA30462B4602B0B4
:103A9800BDE87040184702B070BD00BFC80E0020D6
:103AA800B76DDBB6379A00007CAC00002DE9F8430F
:103AB8000022012106460520FFF742FC114801F0CB
:103AC80083FB114B984219D101F08EFB00244FF073
:103AD8001C090C27DFF834803569414609FB04507E
:103AE80004F07EFC002807DB012307FB04551C4477
:103AF800042CAB67F0D10020BDE8F8836FF0040018
:103B0800FAE700BF4D3B00000000AD0BF8B4000021
:103B180001460C2300224B4370B50848C41878337B
:103B28001844D4E91C56226705F00BFF2DB1324624
:103B38002B46BDE870400248184770BDC80E0020EB
:103B48007CAC0000062812D8DFE800F0040F111141
:103B5800110D0B00064B986F10F0070007D1FFF707
:103B6800D7BF0220FBE70320F9E70120F7E77047FA
:103B7800C80E002008B54FF02003EFF3118183F33E
:103B88001288BFF36F8F124A136843F00200106067
:103B9800DA0708D481F31188BFF36F8FBDE80840B6
:103BA800012001F039BB4FF05023D3F80C24D3F88F
:103BB8000C34DB07EED5074805F0C3FE81F3118806
:103BC800BFF36F8FBDE808400020FFF7A1BF00BF1B
:103BD800680F0020400F00207FB500220123CDE9A7
:103BE800022304ABCDE90433094A6B46CDF800D073
:103BF800CDF804D005F014FF002805DB4FF480420F
:103C08000023684602F04CFF07B05DF804FB00BFD4
:103C18006D9A000010B54FF02003EFF3118483F381
:103C28001288BFF36F8F074A136823F00201DB077E
:103C3800116002D4012006F06CFA84F31188BFF3F6
:103C48006F8F10BD680F00202DE9F0410122074653
:103C58003749D1E8EF3FC1E8E02F0028F9D133B95F
:103C6800344935484B60CB608A6004F0CCFB7B1E3E
:103C7800012B2BD8012F07D14FF05023D3F81C3438
:103C880003F00303022B21D006F09CFB0546F8B98C
:103C98002A4B1B78E3B14FF0502302220646C3F8A3
:103CA80008234FF05024DFF89880D4F81824D4F86B
:103CB8001834D20316D503F00303022B01D0012FC9
:103CC80010D175B386F31188BFF36F8FBDE8F0810B
:103CD8004FF02003EFF3118683F31288BFF36F8F41
:103CE8000125DEE7C5B13046FFF7B6FBD4F8183535
:103CF800DBB2012BD9D1D4F80421002AD5D0002277
:103D0800C4F80421D4F804210222C4F8182520227A
:103D1800C8F88021A360C8E70021212003F0CEF96C
:103D2800E4E74FF050230222C3F80423CEE700BF94
:103D3800C40E0020B40E0020E40E00203012002033
:103D480000E100E008B5074806F0E2FA38B1064895
:103D5800FFF798FD0448FCF713FE002008BD6FF03C
:103D68001200FBE7B8AC0000753D00000A2838B522
:103D78000446074D04D1AB680D2128465B68984777
:103D8800AB6803485B68E1B29847204638BD00BF7E
:103D9800B8AC0000F0B5406801F01F04057B87B09F
:103DA80044EA45140569002D63D0B2F5001F00F1FF
:103DB800100506D12146284606F02BFA002007B048
:103DC800F0BD0027B2F5800F01AE0197776039D1B9
:103DD800B3F1007F14BF052304238DF804300023BA
:103DE800CDE904630393836823FA01F111F001011B
:103DF8001AD1B2F1A07F17D104F01F03620903F1B1
:103E080080032AD0012A3AD11E4A52F82330DB0710
:103E18000AD40DF1030632462146284601F020FD5A
:103E2800194B98421BD002962146284603AA01F056
:103E3800D3FB164B98421FD101222146284601F098
:103E480075FDBBE7B3F1C06F05D0B3F1007F14BFB8
:103E580001230223C1E70323BFE70D4AD5E7314613
:103E6800284601F05DFD094B9842DCD06FF00B004D
:103E7800A5E76FF08500A2E76FF015009FE751F8FE
:103E88002330FFDE002884500400AD0B0000AD0B8A
:103E98000025845038B545682B69B3B110352846DC
:103EA80001F02EFD044680B90146284601F0F2FCD7
:103EB800084B98420BD122462846074901F0CAFC14
:103EC800224605210D20FFF73BFA002038BD6FF090
:103ED8000400FBE70000AD0BE53E00004209034685
:103EE80070B502D0012A17D070BD0D4E32695168E5
:103EF8000029F9D0012503F01F030C689D40002913
:103F0800F2D08A682A4002D030464B6898472CB1D4
:103F1800236821461C46F2E7024EE7E72346F8E706
:103F2800A4AC000090AC00002DE9F04340F2063547
:103F38004668D00648BF0320337B02EA050558BF10
:103F4800C2F3401087B001F01F07B5F5837F144610
:103F580047EA43178DF8030043D00FD8062D18D031
:103F680007D8B5B1022D3ED06FF0150007B0BDE8F7
:103F7800F083B5F5807FF7D101250AE040F20222EF
:103F8800954232D0B5F5407F31D0B5F5007FEBD101
:103F9800022522032DD5012372688B409360326974
:103FA80082BB07F01F037F092AD0012F77D13E4A31
:103FB80002EB830284F48033D2F80012C3F3004387
:103FC800C4F3404444EA430421F4706144EA8004A1
:103FD80021F00F0144EA05230B43C2F80032002008
:103FE800C4E70725D5E70425D3E70525D1E7032549
:103FF800CFE7630341BF012372688B40D360CEE7EC
:104008002A4AD5E71036394630460DF1020201F04A
:1040180027FC14F4403F80460CD13946304606F060
:10402800F6F8234B9845DAD130469DF8021001F096
:1040380071FCD4E74FF0000901AB3946304603AABA
:10404800CDE90439CDE90199CDF80C9001F0C4FA15
:10405800174B984288D114F4003315D09DF80330DB
:1040680084F48034C4F300448DF80E3039464B464E
:10407800304603AA8DF80C508DF80D4001F068FB0E
:104088000B4B9842CDD06FE7CDE9043339460DF19B
:104098000303304603AA039301F09EFAF0E7803346
:1040A80052F82330FFDE00BF0028845000258450DA
:1040B8000000AD0B2DE9F3414FF00008054614460A
:1040C8005668CDF80480304602F018F9074650B912
:1040D800284633460121194A04F04EFC6FF01200BD
:1040E80002B0BDE8F0810A224146A06803F002FD53
:1040F800BB6844005B68CBB1384601A99847A8B9AA
:10410800019B04F00E0123F00E0319430191BB68D3
:1041180038461B68984700280DDA2846334601219F
:10412800074A04F029FC6FF00400D9E704F00E01F7
:1041380041F01001EAE70020D2E700BFC2CA000040
:10414800E4CA00002DE9F04305460C461646994698
:1041580089B0084602F0D2F8074650B928462346E7
:1041680001211E4A04F008FC6FF0120009B0BDE8F6
:10417800F08310220021304603F0BCFC10220021FD
:104188008046484603F0B6FC0446484605F0CDFC98
:1041980008AB1B1A183BCDE90230109B24BA0593D3
:1041A8009DF8443001940693072300248DF81C30B1
:1041B800022238461FFA88F302A98DF8104005F04C
:1041C800A1FCA04208DA284633460121044A04F03B
:1041D800D3FB6FF00400C9E72046C7E7C2CA000056
:1041E80009CB00000123114630B585B001930DF1CC
:1041F8000F0300934968D2E902230546FFF7A2FF9F
:10420800044630B9082128469DF80F30024A04F0C8
:10421800B3FB204605B030BD29CB00002DE9F04F97
:1042280089B006468A4690461D469DF84C40084689
:1042380002F064F8074650B93046534601212A4A2D
:1042480004F09AFB6FF0120009B0BDE8F08F10225D
:104258000021404603F04EFC1022002182462846E9
:1042680003F048FC8346284605F05FFC05466319C1
:104278009BFA8BF0102B039007DDC5F11003022188
:1042880030461A4ADCB204F077FB4FF0000B0DF110
:104298000F095C451ADC08AB5B1B103B009302233B
:1042A80001228DF80830694638462C441FFA8AF3F3
:1042B800019405F027FC002814DA30464346012112
:1042C8000B4A04F059FB6FF00400BDE7129B102263
:1042D80053F82B00002103F00DFC0BF1010B09F83A
:1042E800010FD6E70020AFE7C2CA000037CB0000B5
:1042F8005DCB00002DE9F04F04461746506887B0A3
:1043080001F0FCFF814650B9204601217B682A4A0A
:1043180004F032FB6FF0120007B0BDE8F08F4FF0E9
:10432800000808212046254A04F026FB4646434655
:1043380008212046224A04F01FFB4546DFF884A0E6
:10434800DFF884B02B1F732B07D95A460821204663
:1043580004F012FB18E0A846E9E70DF10B030393FC
:1043680000230493022301228DF814304846ABB28F
:1043780003A905F0C7FBE8B92B4652460821204699
:1043880004F0FAFA0136F6B2013508F11003AB422F
:10439800D8D1082120460D4A04F0EEFA802DDAD152
:1043A8007B682046009308213346094A04F0E4FA62
:1043B8000020B1E7074AC9E7C2CA00007CCB000069
:1043C800B1CB000015C400001BC400006ABC00008B
:1043D800BCCB0000B8CB000038B505461446506881
:1043E80001F08CFF48B96368012128460B4A04F0A4
:1043F800C3FA6FF01204204638BD83685B6953B175
:10440800984704460028F6D0234601212846044A46
:1044180004F0B2FAEFE76FF05704F5E7C2CA0000FC
:10442800D4CB000038B544680569E3699847206A29
:1044380005F0F7FB00280DDB2B462046074A04F160
:10444800080101F0DDFB064B984204D1204601F03B
:1044580033FC002038BD6FF00400FBE7A9440000DE
:104468000000AD0B70B5446823682046D3F80855A2
:10447800D3F80C6501F030FC3146284601F0C8FE3F
:104488000546206A05F0CDFB204601F015FC034BDC
:104498009D4214BF6FF00F00002070BD0000AD0BEF
:1044A8000378012B08D0022B08D04BB9054B0B63BE
:1044B80001F1180002F0CEBA034BF8E7034BF6E718
:1044C800034BF4E70000AD0B0100AE0B0200AE0B8E
:1044D8000100AD0B2DE9F04F934614221D46D0F88C
:1044E80004A08BB00669BAF8183080460C460DEB6C
:1044F80002000021D6F83490029306F064FB8DF890
:1045080015504FF0FF324FF0FF33304602F0C8FA33
:1045180006F11803019300270022002306F1180072
:1045280002F0BEFA3D465F4501D3002460E0207AE0
:10453800020700F1818001375F4521680AD28307AD
:1045480008D4237D80EA030202F0010203F0040389
:104558001A4307D025B901F06043B3F1005F17D0C3
:10456800002300E001236268DDF808E005EB020C97
:10457800F44564D8C00705D409EB0500039306F099
:10458800FBFA039B62682A4495B2002B3FD1FDB920
:104598000025236808936368227A069302F00101D4
:1045A8008DF81410BAF8241099424BD382F0020205
:1045B800C2F340025046520105A901F0ABFB234B60
:1045C800984209D00B33984210D16FF00F040FE0D6
:1045D8002B46CDF82090DFE74FF480420023019866
:1045E80002F05EFA58B14046FFF73CFF6FF0040452
:1045F800304602F02FFA20460BB0BDE8F08F336B3F
:10460800124A9342F2D1237ADB0702D400250C34F4
:1046180089E7089B9945F9D1234608E0A91AD86883
:104628008DB219FA81F1039306F0A6FA039B5A6832
:104638000C3B9542F2D2E9E76FF08504D8E76FF0BA
:104648001B04D5E76FF01B04D5E700BF0000AD0BD6
:10465800036803F01F025B09026004D0012B0348C2
:1046680018BF002070470248704700BF00288450D8
:10467800002584502DE9F04F15468246DFF88C81DD
:10468800DFF88C9185B000EB8101514503D1002002
:1046980005B0BDE8F08FDAF80030C3F34322082AEA
:1046A80003F07F0400F2AC807F2C4FEA134308BF6D
:1046B8004FF0FF3418F80270222B00F2A480DFE8D4
:1046C80003F012191F22252B22A2A2A2A23B67A245
:1046D800A2A2A2A2A2A2A2A26A7F8285A2A2A28864
:1046E800909396999C00C5F80C45601C5DD10AF121
:1046F800040ACAE7C5F81445621CF8D000265DE034
:10470800C5F80845F1E7C5F81045F5E7631CC5F895
:104718000845ECD0002604E0661CC5F80C45E6D038
:1047280001264FF0010B03A80394FFF791FF039BA9
:104738000BFA03F3C36008E0C5F80845002FDBD186
:10474800631CD4D000260627B346DAF8003003A845
:1047580003F40052002A1CBF01264FF0000B0193FE
:104768000394FFF775FF039A019B00EB8200D0F8D2
:104778000022C3F3C1143B0243EA840343EA0B0358
:1047880002EA0902134343EA4603C0F80032AEE7DF
:10479800C5F80C45D2E7C5F86045601CDAF800306A
:1047A800A5D0C3F38033002BBAD0012603A8039405
:1047B800FFF74EFF039B06FA03F38360B346C4E793
:1047C800C5F86445E9E7C5F86845E6E7C5F86C4506
:1047D800E3E7C5F82445621C89D001264FF0000B99
:1047E800B3E7C5F8284580E7C5F83045F3E7C5F8CD
:1047F8003445F0E7C5F83845EDE7C5F83C4574E7BA
:104808006FF0150044E76FF0850041E7F5CD000033
:10481800F0F0FCFF2DE9F74306464FF000080022B0
:1048280001210820FEF78CFD0820FEF759FD776866
:1048380035693C684146C4F800852E60D7F80C906D
:1048480001AA484605F0FDF900283FDB019BD9F88D
:10485800002019791868FFF70DFF002836DB6B7AFE
:10486800D6F810C0012B03D0032B2DD14FF0100820
:10487800AB7A032B28D195F80BE0BEF1000F02D0DC
:10488800BEF1010F20D12A7A012A22D0022A24D08F
:10489800D2B910466B687168B3F5164F096800F015
:1048A800BA803AD8B3F5165F00F0B88020D8B3F5CF
:1048B800966F00F0B58012D8B3F5967F00F0B380FC
:1048C800B3F5167F00F0B2806FF0850003B0BDE845
:1048D800F0834FF480700E22DCE70020FBE7B3F58D
:1048E800166F00F0A680B3F5965FEDD15D4B43E0FF
:1048F800B3F5E14F00F0A08008D8B3F5615F00F090
:104908009D80B3F5964FDFD1574B35E047F6122916
:104918004B45D9D14FF400032EE0B3F5613F00F0C9
:104928008F8015D8B3F5963F00F08D800AD84DF6E4
:10493800C0294B4500F08980B3F5614FC4D14FF4CD
:104948006B0319E0B3F5E13FBED14FF0EB7313E011
:10495800B3F5612F7CD009D8DFF810914B457AD098
:10496800B3F5E12FB0D14FF0E86305E0DFF800912F
:104978004B45A9D14FF08053C1F82435736840EAFC
:104988000E001B6842EA08021043C3F86C050CF1DC
:104998000403D5E9010183E803007B68990712D570
:1049A80005F11C0000F0F8FC324B984256D1287FE4
:1049B80004F10C0204F5907105F0F1FA01202B7F47
:1049C800984000F0FBFB0823C4F800353B7A53B944
:1049D800C4F81031D4F81031AB69C4F83435012368
:1049E800C4F8383523607B6800209A075CBF4FF411
:1049F8008073C4F804337B68DB0644BF4FF480033C
:104A0800C4F804336B69C4F844350123C4F8480575
:104A1800A360E3605AE74FF41D03ADE7164BABE71D
:104A28004FF49E23A8E74FF4A033A5E74FF41C33B7
:104A3800A2E74FF41D239FE7104B9DE7104B9BE720
:104A48004FF06C7398E70F4B96E74FF4650393E7C5
:104A58004FF0706390E74FF080638DE76FF00400CC
:104A680034E700BF00B0130000A04E0090D0030050
:104A780040420F000000AD0B0050270000C0750039
:104A880000F03A0000903A01F8B504460D4607696F
:104A980005F098FCB0B9214B1B789BB1642660687F
:104AA80005F0A9F900BB012005F06DFA013EF6D129
:104AB8000021212002F002FBF0E781F31188BFF307
:104AC8006F8FF5E74FF02003EFF3118183F312881E
:104AD800BFF36F8F60680E4605F08DF990B981F3CA
:104AE8001188BFF36F8FEDE74FF02003EFF31181CB
:104AF80083F31288BFF36F8F60680E4605F07BF969
:104B08000028DAD07B6901221D702046796905F0FA
:104B1800B2F886F31188BFF36F8FF8BD301200200A
:104B28000123834070B5DC430B4AD2E8EF1F01EA4A
:104B38000405C2E8E65F002EF7D14FF480328240C8
:104B48000648C0F80823BFF35F8FBFF36F8F0B428F
:104B580014BF0120002070BD880F002000500150B4
:104B680070B40E4922F07F46D1E90034D01AC31838
:104B780044F10004C1E90034A6F50013B3F5400F71
:104B880009D2074B1B681A0A1B069C19054B42F1F0
:104B98000005C3E9004570BC02F098BBB0030020D3
:104BA8008C0F0020B8030020D9B101230D4A83409F
:104BB800D2E8EFCF4CEA030CC2E8E1CF0029F7D1E5
:104BC8004FF48033084A8340C2F80433074BD3E8D4
:104BD800AF3FC340DB0742BF4FF40012044BC3F89A
:104BE80000217047880F002000500150840F0020DA
:104BF80000E100E00D4B1868010A0006BFF35F8F63
:104C08000B4BD3F80435181841F10001B3F5801F98
:104C18000AD2084BD3E90023904271EB030303D275
:104C280010F1807041F10001704700BF8C0F002027
:104C380000500150B80300202DE9F04F85B016460A
:104C48001F4604469DF840A0FFF76AFF0190FFF752
:104C5800D1FFB04271EB070352D23B4B301A67EBDE
:104C68000101984271F100014DD2384B03EB041356
:104C7800D3E902239F4208BF964258D04FF48038A8
:104C8800334908FA04F8204626F07F4BC1F84883D8
:104C980005F059F94FF00309584604F15005AD00E5
:104CA800ADB205F1502504F5A87305F580350293DA
:104CB800029A20F07F4341F82230C1F84483D1F8AA
:104CC8000435244AC01A033820F07F4090422ED978
:104CD800286868B1D1F80435A3EB0B0020F07F40B9
:104CE800B0F5000F039322D9204605F02CF9039B59
:104CF800BAF1000F07D109EB030009F10109D7E761
:104D0800BAF1000F09D06FF0150520460199FFF799
:104D18004BFF284605B0BDE8F08F01230E4AA3409B
:104D2800D2E8EF0F1843C2E8E10F0029F8D107498C
:104D38000E982301C8500F9B01EB04120025C2E90D
:104D480002675360E1E700BF01008000A003002074
:104D580000500150FDFF7F00840F00207FB5002523
:104D68004FF0FF304FF0FF31194C1A4B0226C4F8B0
:104D78000833C4F84833184BC4F80855C3E902018E
:104D88004FF480334FF40012C4F80433134B01215D
:104D9800C4F804631520C3F880212A46FEF7D0FA28
:104DA8001520FEF79DFA01230D4AA36023601360C6
:104DB8000C4B0D4A009328460023CDE90155FFF717
:104DC8003BFF3046FEF740FF284604B070BD00BFE9
:104DD8000050015003000F00A003002000E100E094
:104DE800880F0020694B0000FFFF7F002DE9F74383
:104DF8002E4BD3F8042390070BD5D3F8042142B1E6
:104E08000022C3F804212A4AD3F804311368013375
:104E18001360264AD2F80433D90327D5254BD3E8A3
:104E2800EF1F21F00100C3E8E40F002CF7D1CB07F6
:104E380002D4D2F84031CBB100251C4CC4F8405103
:104E4800D4F84031FFF7D6FE4FF02003EFF311827C
:104E580083F31288BFF36F8F174BD3E90267B04211
:104E6800B94106D282F31188BFF36F8F03B0BDE852
:104E7800F0834FF0FF38D3E900104FF0FF391D6081
:104E8800C3E902894FF48033C4F84833C4F8405169
:104E9800D4F8403182F31188BFF36F8F0029E5D031
:104EA800009032463B4628468847DFE700500150CD
:104EB8008C0F0020840F0020A003002030B5431C75
:104EC800124C85B005D08442A8BF0446012CB8BF57
:104ED8000124FFF78FFE0E4B0C4DD3E90013401A47
:104EE800B0F5000F0FD22218AA4228BF2A46002088
:104EF80052180849CDE90100009143F10003FFF77A
:104F08009BFE05B030BD2A46F1E700BFFFFF7F00DA
:104F1800B0030020694B000008B5FFF76BFE024B99
:104F28001B68C01A08BD00BFB0030020012310B5DC
:104F3800074C15206360FEF7E1F94FF40012054BAA
:104F4800C4F80833C4F84833034BC3F8802110BDB4
:104F58000050015003000F0000E100E04FF47F0310
:104F6800D3F83021D3F83431072A05D1023B032B7B
:104F780002D8024AD05C70470020704710CE00006B
:104F880008B5FFF7EBFF58B1644BD3F8202A3AB9BC
:104F98000D21C3F8201A0121C3F81C19C3F81C29D4
:104FA8000022D30003F57F03D3F80013013107D0A3
:104FB800D3F800130132D3F80433202A0B60F0D160
:104FC800FFF7CCFF002840F0A080FFF7C7FF40B1F3
:104FD800534B544AC3F830254FF050230122C3F8ED
:104FE80058254FF47F03D3F83021D3F83431072AFA
:104FF80009D1023B032B06D84B4AD35C1BB10022D4
:105008004A4BC3F84C25FFF7A9FF50B14FF0502386
:10501800D3F80024D10742BF0022C3F81421C3F8F3
:1050280018214FF47F03D3F83021D3F83431072AFD
:1050380009D14FF05023D3F80024D20744BF6FF0B2
:105048000102C3F80024FFF789FF18B16522334B2A
:10505800C3F80C274FF47F03D3F83021D3F8343149
:10506800072A16D1314BD3F82034002B11DA4FF030
:1050780050230322C3F8182501229A60D3F804218B
:10508800002AFBD00022C3F804210122DA60C3F809
:1050980018254FF47F03D3F83021D3F83431072A89
:1050A80023D1023B032B02D8214AD35CEBB17E22E9
:1050B8001A4B1B49C3F80C27C3F83C297F231D4A08
:1050C800C2F818310023C1F8043EC1F8083E01F5C2
:1050D8004821C1F81031C2F82431C2F82C3102F548
:1050E800FF1202F58052C2F8A032134AD2F88C306F
:1050F80043F44063C2F88C30104A114B1168C3F86E
:105108004415D269C3F84C2508BD2922034BC3F8BE
:105118000C270322C3F83C2757E700BF0040005084
:10512800009003504400EFBE0CCE00000020035056
:1051380008CE00000020005000ED00E00080FF00D5
:105148000060005030B50468ACB1B4FA84F30122B1
:10515800C3F11F03DBB29A4024EA0202D0E8EF5FF2
:10516800A54204D1C0E8EC2FBCF1000FF6D1EAD17A
:1051780002480B7030BD0248FCE700BF0000AD0BD1
:105188000200AD0B10B50368CB40DB0710D4012338
:105198008B40026843EA0201D0E8EF4F944204D101
:1051A800C0E8EC1FBCF1000FF6D1F2D1014810BDE8
:1051B8000148FCE70000AD0B0400AD0B014BC3F840
:1051C8000405704700700150044B1A7922B9012276
:1051D80018601A710248704702487047900F002003
:1051E8000000AD0B0C00AD0B08B50A4B1B6833B1C2
:1051F8000520FEF797F810B90520FEF771F84FF073
:1052080050230122C3F81825C3F81425C3F88025B4
:1052180008BD00BF900F002010B5032845D8DFE86F
:1052280000F01802554F00224FF48073012100202E
:1052380003F1502318601C68012402F15022146005
:10524800284A1268002A47D04FF05023C3F80413A5
:105258002BE04FF05023D3F81814D3F81824C903BF
:1052680012D502F00303022B05D0012B02D0002037
:1052780004F09EFE01234FF050220221C2F8183597
:1052880008224FF48273D2E7D3F81424D207F1D559
:10529800D3F81C2402F00302013A012AE7D8114A84
:1052A80012681AB10222C3F8042310BDD3F80421EE
:1052B800002AFBD00022C3F80421D3F80431F4E714
:1052C80018224FF490734FF48071B0E720224FF406
:1052D80092734FF40071AAE71A68002AFCD018608C
:1052E8001B68E2E7900F00204FF0502310B5D3F869
:1052F800002152B10020C3F80001D3F80021012297
:10530800C3F80823234B1B6898474FF05023D3F862
:10531800042182B10022C3F80421D3F80421D3F870
:105328001824D3F81824022102F00302012A28D1F4
:10533800C3F818159A604FF05023D3F8202162B1B2
:105348000022C3F82021D3F820214FF48072C3F83B
:105358000823104B05201B6898474FF05023D3F8BB
:105368002421AAB10022C3F82421D3F824214FF420
:105378000072C3F80823074B0620BDE810401B68DD
:105388001847C3F80813034B01201B689847D2E756
:1053980010BD00BF900F002001460148FFF7D2BEA4
:1053A80004010020036803F01F025B09026004D0B7
:1053B800012B034818BF002070470248704700BF00
:1053C8000028845000258450034A4309D35C00F028
:1053D8001F001844C0B2704714CE000070B50546CF
:1053E800FFF7F2FF0C4C083034F810300E46DA059F
:1053F80008D5C3F3432304EBC302284654F83330DB
:1054080052689847A3682BB131462846E268BDE840
:105418007040184770BD00BF0801002008B5FFF7AD
:10542800D3FF034B083033F81000400B08BD00BF12
:105438000801002008B5FFF7C7FF034B083033F811
:105448001000C0F3400008BD0801002008B5FFF7B0
:10545800BBFF034B083033F81000C0F3401008BD01
:1054680008010020034611F0010010B5CCB20BD1A1
:10547800A207C4F340000DD5074A106A58601062AD
:10548800003818BF012005E004490A6A1A600A6258
:10549800002AEDD010BD00BF00288450002584509C
:1054A80010B5FFF791FF124A083032F81030D905CD
:1054B8001CD5C3F3432123F4F85322F810300020FD
:1054C80002F10E0434F8023F13F4807F03D0C3F3D3
:1054D800432399420AD001303028F3D1002342F8FF
:1054E80031300448BDE81040FFF74CBE10BD00BF86
:1054F8000801002080010020F0B5054600200126A3
:10550800044607468C420BD1114BD3F87C2132B1AB
:105518000022C3F87C21D3F87C3140F00040F0BD74
:10552800E3B29B0003F580729B0806FA03F31D4261
:105538000BD002F1A04202F55042D2F800C0BCF1F3
:10554800000F02D01760126818430134DAE700BF71
:1055580000D00050F7B506460846FFF735FF1A4F4A
:1055680000F1080537F815300C46DB072AD5304618
:1055780004F029FE2046FFF769FF58B12046FFF7DF
:105588004DFF0022316800B201EB8003C3F81025FB
:10559800C3F810252046FFF783FF002301A827F84A
:1055A80015300194FFF7FEFE019B00EB8300D0F855
:1055B8000022064B134043F00203C0F800320448AF
:1055C80003B0F0BD0348FBE708010020F0F0FCFF42
:1055D8000000AD0B0400AD0B2DE9F04316468046E4
:1055E80085B00846FFF7F0FE0D463168044609B35A
:1055F8002846FFF71FFF18B12846FFF727FF10BB03
:1056080000230DF10F02CDE900338DF80E308DF82F
:105618000F3028460B460DF10E0104F07CFD484A78
:1056280004F1080132F8113023F0020343F00103BA
:1056380022F8113073687BB328461F785968FFF742
:10564800F9FE10B1E9B13F4829E03D4A04F10800EC
:1056580032F8103023F02003DB04DB0C22F8103082
:1056680079B1032FEFD87168D1F804E0D8F80010A9
:105678009EF800C001EB8C01A7B9C1F81075C1F8FC
:1056880010752F4A04F1080132F8113023F01C0379
:1056980043EA870322F81130B3683BBB2A4805B0B8
:1056A800BDE8F083D1F810E543EA4C332EF0030E41
:1056B800C1F810E5D8F8001043F0200301EB8C0E78
:1056C800DEF8101522F8103021F44F3121F4407122
:1056D800CEF810152902DEF8108501F47C5141EA54
:1056E800074141EA0801CEF81015CAE72846D3E970
:1056F8000067FFF7D5FE002ED0D0114DD5E9002365
:10570800964203D19F4201D1002209E00F480DF1D2
:105718000F01FFF717FD0C4B9842C0D19DF80F20E1
:1057280005EBC20308345F6035F8143045F8326081
:1057380043EA422343F4807325F81430AEE700BFF0
:10574800080100200400AD0B0000AD0B8001002013
:105758002DE9F0430C46804685B0204611461D468B
:10576800FFF732FE064629B32046FFF763FE18B955
:105778002046FFF76BFE18BB334F06F1080937F8D0
:10578800193013F01C0F02D04B78012B18D00123CD
:105798008DF80F3000234A1CCDE9001320468B1CDE
:1057A8000DF10F0104F0B7FC37F8193043F003038B
:1057B80027F81930002D44D02046FFF73BFE18B9D2
:1057C800224805B0BDE8F083002295F800C0D8F85B
:1057D80000301D4F03EB8C03C3F81025C3F81025C8
:1057E80006F1080237F812104FEA8C0E21F020015A
:1057F800C904C90C27F812106E7816B3D8F800003F
:10580800AD787044D0F81035360423F4991323F496
:10581800F853C0F81035230203F47C5306F44036DD
:105828002D05D0F810E5334305F480152B4341EAE4
:105838004C3143EA0E0341F02001C0F8103527F837
:1058480012100348BDE700BF080100200400AD0B9B
:105858000000AD0B014BC3E902127047080100209C
:1058680010B508461446FFF7F1FD50B10846FFF79A
:10587800ABFD054B083033F8103004485B0B237040
:1058880010BD0348FCE700BF080100200000AD0B75
:105898000400AD0B70B5174E054696F880403CBB2A
:1058A8002146602206F1100005F08DF921462D6889
:1058B800306F884212D1002345F30730C5F87C3198
:1058C800D5F87C31FDF70CFD4FF00043C5F80433E3
:1058D8000123094886F88030B36770BDCBB29B00BE
:1058E80003F580727C2B04BFAC50AB580131E0E764
:1058F8000248F2E7080100200000AD0B0C00AD0BD8
:10590800034B93F88000003818BF0120704700BF90
:10591800080100200148FFF735BC00BF7C010020CA
:105928000148FFF70FBC00BF7C01002073B5054696
:1059380008460C461646FFF789FD00B30846FFF7F0
:1059480079FD0146D8B92046FFF768FD04B2A400E6
:105958000346286804F580728150296882582144DA
:10596800D1F8102542F00102C1F810252EB101220C
:10597800296802FA03F3C1F8043302B070BD204667
:10598800FFF722FD0E4B083033F81030C3F38203C3
:10599800042B11D0052B11D001A80194FFF702FDAB
:1059A800019A0369D34003F00103991C204602B011
:1059B800BDE8704004F0F8BB0321F7E70221F5E7E2
:1059C800080100202DE9F04F684BDFF8A481D3F8D7
:1059D8000403D8F87010C0B289B040F00040FFF757
:1059E8008BFD051E2FDAC24600235AF87C1F06A835
:1059F800CDE90633FFF736FD4FF0000B5D4B0DF197
:105A080018090193019A12F8013B0192DA081AF871
:105A1800022003F0070322FA03F3DA071CD409F182
:105A28000409BBF1000F14D0D8F870104FF00040F3
:105A3800FFF762FDD8F87C1006A8FFF713FD0028D1
:105A4800DAD125F000450124002D76D109B0BDE852
:105A5800F08F4FF0010BD5E7474B5B440293D9F821
:105A680000100029DBD091FAA1F1B1FA81F1029B73
:105A78001C7841EA44142046FFF7A6FC083038F8A1
:105A88001070C808BB080393012319F8002001F01F
:105A9800070103FA01F122EA010209F8002005A82A
:105AA8000594FFF77FFC059A039B803250F822206B
:105AB800C7F382065B073746C2F3014222D5204668
:105AC8003946D6B2FFF78AFC05A80594FFF76AFCA9
